{
    "contractName": "FundMe",
    "abi": [
        {
            "inputs": [],
            "stateMutability": "nonpayable",
            "type": "constructor"
        },
        {
            "inputs": [],
            "name": "FundMe__notOWner",
            "type": "error"
        },
        {
            "stateMutability": "payable",
            "type": "fallback"
        },
        {
            "inputs": [],
            "name": "MINIMUM_USD",
            "outputs": [
                {
                    "internalType": "uint256",
                    "name": "",
                    "type": "uint256"
                }
            ],
            "stateMutability": "view",
            "type": "function"
        },
        {
            "inputs": [
                {
                    "internalType": "address",
                    "name": "",
                    "type": "address"
                }
            ],
            "name": "addressToAmountFunded",
            "outputs": [
                {
                    "internalType": "uint256",
                    "name": "",
                    "type": "uint256"
                }
            ],
            "stateMutability": "view",
            "type": "function"
        },
        {
            "inputs": [],
            "name": "fund",
            "outputs": [],
            "stateMutability": "payable",
            "type": "function"
        },
        {
            "inputs": [
                {
                    "internalType": "uint256",
                    "name": "",
                    "type": "uint256"
                }
            ],
            "name": "funders",
            "outputs": [
                {
                    "internalType": "address",
                    "name": "",
                    "type": "address"
                }
            ],
            "stateMutability": "view",
            "type": "function"
        },
        {
            "inputs": [],
            "name": "getVersion",
            "outputs": [
                {
                    "internalType": "uint256",
                    "name": "",
                    "type": "uint256"
                }
            ],
            "stateMutability": "view",
            "type": "function"
        },
        {
            "inputs": [],
            "name": "i_owner",
            "outputs": [
                {
                    "internalType": "address",
                    "name": "",
                    "type": "address"
                }
            ],
            "stateMutability": "view",
            "type": "function"
        },
        {
            "inputs": [],
            "name": "withdraw",
            "outputs": [],
            "stateMutability": "nonpayable",
            "type": "function"
        },
        {
            "stateMutability": "payable",
            "type": "receive"
        }
    ],
    "bytecode": "60808060405234602757600280546001600160a01b031916331790556105f1908161002c8239f35b5f80fdfe6080806040526004361015610028575b5036156100205761001e610423565b005b61001e610423565b5f3560e01c9081630d8e6e2c14610348575080633ccfd60b1461015f5780633e47d6f3146101245780636b69a59214610102578063b60d4288146100ef578063dba6335f146100c75763dc0d3dff14610081575f61000f565b346100c35760203660031901126100c3576004356001548110156100c3576100aa6020916103d5565b905460405160039290921b1c6001600160a01b03168152f35b5f80fd5b346100c3575f3660031901126100c3576002546040516001600160a01b039091168152602090f35b5f3660031901126100c35761001e610423565b346100c3575f3660031901126100c3576020604051674563918244f400008152f35b346100c35760203660031901126100c3576004356001600160a01b038116908190036100c3575f525f602052602060405f2054604051908152f35b346100c3575f3660031901126100c3576002546001600160a01b03163303610339575f5b6001548110156101b957806101996001926103d5565b838060a01b0391549060031b1c165f525f6020525f604081205501610183565b60206040516101c88282610401565b5f81525f36813780519067ffffffffffffffff821161028457600160401b8211610284578290600154836001558084106102d8575b500160015f525f5b82811061029d57835f80808047335af13d15610298573d67ffffffffffffffff81116102845760405190610242601f8201601f1916850183610401565b81525f833d92013e5b1561025257005b6064906040519062461bcd60e51b82526004820152600b60248201526a10d85b1b0819985a5b195960aa1b6044820152fd5b634e487b7160e01b5f52604160045260245ffd5b61024b565b81516001600160a01b03167fb10e2d527612073b26eecdfd717e6a320cf44b4afac2b0732d9fcbe2b7fa0cf682015590830190600101610205565b7fb10e2d527612073b26eecdfd717e6a320cf44b4afac2b0732d9fcbe2b7fa0cf601837fb10e2d527612073b26eecdfd717e6a320cf44b4afac2b0732d9fcbe2b7fa0cf6015b81811061032b57506101fd565b5f815585935060010161031e565b631c9192fb60e21b5f5260045ffd5b346100c3575f3660031901126100c35763054fd4d560e41b815260208160048173694aa1769357215de4fac081bf1f309adc3253065afa80156103ca575f90610397575b602090604051908152f35b506020813d6020116103c2575b816103b160209383610401565b810103126100c3576020905161038c565b3d91506103a4565b6040513d5f823e3d90fd5b6001548110156103ed5760015f5260205f2001905f90565b634e487b7160e01b5f52603260045260245ffd5b90601f8019910116810190811067ffffffffffffffff82111761028457604052565b604051633fabe5a360e21b815260a08160048173694aa1769357215de4fac081bf1f309adc3253065afa9081156103ca575f91610557575b506402540be4008102908082056402540be40014811517156104fe576402540be40090340202908082043414901517156104fe57670de0b6b3a7640000674563918244f4000091041061051257335f525f60205260405f208054903482018092116104fe5755600154600160401b811015610284578060016104e092016001556103d5565b81546001600160a01b0360039290921b91821b19163390911b179055565b634e487b7160e01b5f52601160045260245ffd5b60405162461bcd60e51b815260206004820152601b60248201527f596f75206e65656420746f207370656e64206d6f7265204554482100000000006044820152606490fd5b905060a0813d60a01161059c575b8161057260a09383610401565b810103126100c357610583816105a4565b506105956080602083015192016105a4565b505f61045b565b3d9150610565565b519069ffffffffffffffffffff821682036100c35756fea264697066735822122038d219828bea346a724e9fe9bc47df3866ca5314471d3f2f945de9fc872c893664736f6c634300081c0033",
    "sourcePath": "/Users/borbitik/MA/Documents/my_projects/crypto/foundry-fund-me/src/FundMe.sol",
    "compiler": {
        "name": "solc",
        "version": "0.8.28+commit.7893614a"
    },
    "functionHashes": {
        "MINIMUM_USD()": "6b69a592",
        "addressToAmountFunded(address)": "3e47d6f3",
        "fund()": "b60d4288",
        "funders(uint256)": "dc0d3dff",
        "getVersion()": "0d8e6e2c",
        "i_owner()": "dba6335f",
        "withdraw()": "3ccfd60b"
    },
    "gasEstimates": {
        "creation": {
            "codeDepositCost": "304200",
            "executionCost": "24585",
            "totalCost": "328785"
        },
        "external": {
            "": "infinite",
            "MINIMUM_USD()": "219",
            "addressToAmountFunded(address)": "2410",
            "fund()": "infinite",
            "funders(uint256)": "6762",
            "getVersion()": "infinite",
            "i_owner()": "2390",
            "withdraw()": "infinite"
        }
    }
}